:060000000A128A112F2FE5
:100E5E0083134A30FD000730FE005430FF00363059
:100E6E0084000A128A1145270A128A1183010A1276
:100E7E008A11A62F7E088A007F0882000A128A1124
:100E8E0041270A128A118000840A04087D0603197C
:100E9E000034FF0A0319FE0A452F40340034F9349A
:100EAE000034243400343034003419340034123415
:100EBE00003403340034F834003400340034103479
:100ECE000034F301F401962FF501F6017608803A0D
:100EDE00FF0083307F02031D762FE8307502031C5E
:100EEE00792F7A2F7C2F902F902F0130F507031832
:100EFE00F60A0030F6077608803AFF0083307F024C
:100F0E00031D8B2FE8307502031C8E2F8F2F7C2F25
:100F1E00902F0130F3070318F40A0030F407740819
:100F2E00803AF2007108803A7202031DA02F7008F9
:100F3E007302031CA32FA42F6B2FA52F080083165B
:100F4E0003138801203084003630F7000408F800BF
:100F5E001430F9007708840083130008FA00F70AAA
:100F6E00780884007A088000F80AF90BB12FBF2F99
:100F7E0083120313B401B5013508803AFF008030A7
:100F8E007F02031DCC2F0A303402031CCF2FD02F2B
:100F9E00D22FBF2FBF2F831203133408F70077070A
:100FAE00203E84008313000888006430F000003077
:100FBE00F1000A128A1168270A128A11013083126F
:100FCE000313B4070318B50A0030B5073508803A85
:100FDE00FF0080307F02031DF62F0A303402031CFF
:100FEE00F92FFA2FD22FBF2FBF2FBF2F0A128A1120
:020FFE000028C9
:00000001FF
