:060000000A128A117C2F98
:100EF80083010A128A119A2F831603138712940109
:100F080020308312031394008316031387110800FB
:100F1800F0007008831203139300922F83160313B3
:100F2800141C972F982F922F992F08000A128A11B4
:100F380080270A128A110C300A128A118C270A1289
:100F48008A11E830F0000330F1000A128A11C22732
:100F58000A128A1177300A128A118C270A128A110A
:100F6800E830F0000330F1000A128A11C2270A1291
:100F78008A119F2F9F2F0A128A110028F301F4016A
:100F8800F02FF501F6017608803AFF0080307F02E5
:100F9800031DD02FFA307502031CD32FD42FD62F60
:100FA800EA2FEA2F0130F5070318F60A0030F60792
:100FB8007608803AFF0080307F02031DE52FFA3063
:100FC8007502031CE82FE92FD62FEA2F0130F3070B
:100FD8000318F40A0030F4077408803AF200710824
:100FE800803A7202031DFA2F70087302031CFD2F4A
:080FF800FE2FC52FFF2F08009A
:00000001FF
