:060000000A128A110A2F0A
:100DFA0083160313871207119401203083120313F9
:100E0A009400831603138711080083134430FD00EE
:100E1A000730FE004C30FF00203084000A128A118D
:100E2A0020270A128A1183010A128A11962F7E0834
:100E3A008A007F0882000A128A111C270A128A1164
:100E4A008000840A04087D0603190034FF0A031986
:100E5A00FE0A202FF1008312031307117108930071
:100E6A00362F83160313141C3B2F3C2F362F3D2F8E
:100E7A007008831203139300422F83160313141C62
:100E8A00472F482F422F83120313071508003F34B8
:100E9A000034063400345B3400344F340034663492
:100EAA0000346D3400347C340034073400347F3429
:100EBA0000346F3400340134003402340034033413
:100ECA000034043400340534003406340034073462
:100EDA000034083400348312031307150A128A11E6
:100EEA00FD260A128A110F30F2007208F0000A3049
:100EFA000A128A112F270A128A110730F200720881
:100F0A00F0000B300A128A112F270A128A11F001F7
:100F1A000314F00D0C300A128A112F270A128A11B3
:100F2A0008000A128A1170270A128A1183120313FF
:100F3A002008F3007308F00034080A128A112F27D8
:100F4A000A128A11831203132208F3007308F000AD
:100F5A0036080A128A112F270A128A1183120313DA
:100F6A002408F3007308F00038080A128A112F27A0
:100F7A000A128A11831203132608F3007308F00079
:100F8A003A080A128A112F270A128A1183120313A6
:100F9A002808F3007308F0003C080A128A112F2768
:100FAA000A128A11831203132A08F3007308F00045
:100FBA003E080A128A112F270A128A118312031372
:100FCA002C08F3007308F00040080A128A112F2730
:100FDA000A128A11831203132E08F3007308F00011
:100FEA0042080A128A112F270A128A11FC2FFC2F93
:060FFA000A128A11002812
:00000001FF
