:100000000A128A11272900308A000408840A82070C
:10001000003454347534723462346934643469346D
:10002000743479343A340034433468346C346F3483
:1000300072343A340034703448343A340034503432
:1000400048344F34003443344C344F340034543447
:0600500055344F3400346A
:10024E0083010A128A11942CF00070088312031392
:10025E00990031290C1E3429352931290C12080038
:10026E0024308316031398009030831203139800E2
:10027E00831603131815813099000800F7007708CC
:10028E008312031386000710871007150530F00040
:10029E000030F1000A128A11F1210A128A1183121A
:1002AE00031307110800F700770883120313860063
:1002BE000714871007150530F0000030F1000A1200
:1002CE008A11F1210A128A118312031307110800F1
:1002DE0038300A128A1145210A128A110C300A127C
:1002EE008A1145210A128A1106300A128A114521F5
:1002FE000A128A1180300A128A1145210A128A11B5
:10030E000800F9009B29790884000A128A1103203B
:10031E000A128A110A128A115A210A128A110130FE
:10032E00F8007808F9079B29790884000A128A11C7
:10033E0003200A128A110038031DA629A7298A292B
:10034E00A8290800003083120313B0000030AF005C
:10035E000030AE000A30AD003A08B4003908B300E0
:10036E003808B2003708B1000A128A11C6230A12E1
:10037E008A11831203132D08303E0A128A115A2154
:10038E000A128A110800F100F201F301E229720843
:10039E00710784000A128A1103200A128A110A12A6
:1003AE008A112B210A128A110130F2070318F30A5F
:1003BE000030F307E2297208710784000A128A11CD
:1003CE0003200A128A110038031DEE29EF29CE29C7
:1003DE00F0290800F301F4011F2AF501F601760851
:1003EE00803AFF0080307F02031DFF29FA3075022C
:1003FE00031C022A032A052A192A192A0130F50795
:10040E000318F60A0030F6077608803AFF008030AF
:10041E007F02031D142AFA307502031C172A182AAC
:10042E00052A192A0130F3070318F40A0030F407DD
:10043E007408803AF2007108803A7202031D292A6C
:10044E0070087302031C2C2A2D2AF4292E2A080068
:10045E008312031346084504031D362A372A452AFC
:10046E004D309F008B300A128A1145210A128A11D3
:10047E000A128A1116250A128A11452A0130831290
:10048E00031345064604031D4D2A4E2A5C2A553099
:10049E009F00C3300A128A1145210A128A110A12CC
:1004AE008A119A250A128A115C2A023083120313CA
:1004BE0045064604031D642A652A732A5D309F0093
:1004CE00CC300A128A1145210A128A110A128A1197
:1004DE001E260A128A11732A08000030FC00003012
:1004EE00FB000030FA000030F9007D2A701C802AD3
:1004FE00812A992A7408F907750803110318013E19
:10050E0003198A2AFA07760803110318013E031904
:10051E00912AFB07770803110318013E0319982A45
:10052E00FC07992A0130F8000310F40DF50DF60DB5
:10053E00F70DF80B9B2A01300310F30CF20CF10CA3
:10054E00F00CFF3E031DA32A73087204710470049D
:10055E00031DB22AB32A7D2AB42A7C08F3007B0835
:10056E00F2007A08F1007908F000BD2A0800003088
:10057E0083120313B0000030AF000030AE000A301B
:10058E00AD000030A3000030A2000030A1000A3000
:10059E00A0003A08A7003908A6003808A5003708B9
:1005AE00A4000A128A1124240A128A118312031338
:1005BE002308B4002208B3002108B2002008B100BD
:1005CE000A128A11C6230A128A11831203132D08E6
:1005DE00303E0A128A112B210A128A110030831220
:1005EE000313B0000030AF000030AE000A30AD0093
:1005FE003A08B4003908B3003808B2003708B10021
:10060E000A128A11C6230A128A11831203132D08A5
:10061E00303E0A128A112B210A128A11080000306C
:10062E0083120313B0000030AF000030AE000A306A
:10063E00AD000030A3000030A2000030A1000A304F
:10064E00A0003A08A7003908A6003808A500370808
:10065E00A4000A128A1124240A128A118312031387
:10066E002308B4002208B3002108B2002008B1000C
:10067E000A128A11C6230A128A11831203132D0835
:10068E00303E0A128A115A210A128A110030831240
:10069E000313B0000030AF000030AE000A30AD00E2
:1006AE003A08B4003908B3003808B2003708B10070
:1006BE000A128A11C6230A128A11831203132D08F5
:1006CE00303E0A128A115A210A128A11080000308D
:1006DE0083120313B0000030AF000030AE000A30BA
:1006EE00AD000030A3000030A2000030A1000A309F
:1006FE00A0003A08A7003908A6003808A500370858
:10070E00A4000A128A1124240A128A1183120313D6
:10071E002308B4002208B3002108B2002008B1005B
:10072E000A128A11C6230A128A11831203132D0884
:10073E00303E0A128A115A210A128A11003083128F
:10074E000313B0000030AF000030AE000A30AD0031
:10075E003A08B4003908B3003808B2003708B100BF
:10076E000A128A11C6230A128A11831203132D0844
:10077E00303E0A128A115A210A128A110800831277
:10078E00031330082F042E042D040319CF2BD02B66
:10079E001A2CB6010314B60DE22B0130B50003106E
:1007AE00AD0DAE0DAF0DB00DB50BD62B0130B500A6
:1007BE003508B607E22BB01FE52BE62BD42BE82B22
:1007CE00E82B30083402031DF62B2F083302031DCD
:1007DE00F62B2E083202031DF62B2D083102031CB8
:1007EE00F92BFA2B092C2D08B1022E08031C2E0F03
:1007FE00B2022F08031C2F0FB3023008031C300F58
:10080E00B402092C01300310B00CAF0CAE0CAD0CC1
:10081E00FF3E031D0A2C0130B602031D172C182CA7
:10082E00E82B1A2C1A2C3408B0003308AF0032080B
:10083E00AE003108AD00232C0800003083120313E4
:10084E00AB000030AA000030A9000030A800230839
:10085E002204210420040319352C362C8A2CAC01D9
:10086E000314AC0D482C0130FD000310A00DA10D9A
:10087E00A20DA30DFD0B3C2C0130FD007D08AC0735
:10088E00482CA31F4B2C4C2C3A2C4E2C4E2C0130AA
:10089E00FD000310A80DA90DAA0DAB0DFD0B502CDC
:1008AE0023082702031D652C22082602031D652C32
:1008BE0021082502031D652C20082402031C682C28
:1008CE00692C792C2008A4022108031C210FA502F3
:1008DE002208031C220FA6022308031C230FA702C3
:1008EE002814792C01300310A30CA20CA10CA00C1F
:1008FE00FF3E031D7A2C0130AC02031D872C882C81
:10090E004E2C8A2C8A2C2B08A3002A08A200290818
:10091E00A1002808A000932C08008316031386015B
:10092E0007138717071087100711880185140515FF
:10093E0085150A128A1137210A128A1168300A1295
:10094E008A112B210A128A110A128A116F210A1298
:10095E008A1180300A128A1145210A128A11013039
:10096E000A128A1188210A128A11C0300A128A11BB
:10097E0045210A128A1113300A128A1188210A128D
:10098E008A11C6300A128A1145210A128A110C30B8
:10099E000A128A1188210A128A11D52C003083126C
:1009AE000313C5000030C6000A128A112F220A1244
:1009BE008A115E30F0000130F1000A128A11F12125
:1009CE000A128A11013083120313C5000030C600CB
:1009DE000A128A112F220A128A115E30F00001309B
:1009EE00F1000A128A11F1210A128A1102308312C1
:1009FE000313C5000030C6000A128A112F220A12F4
:100A0E008A115E30F0000130F1000A128A11F121D4
:100A1E000A128A11D52CD52C0A128A110028803080
:100A2E00831603139F001B2D83121F191F2D202DBC
:100A3E001B2D212D1E08BB00BC013B08BC00BB01B9
:100A4E00831603131E08831203133B07BD000030E9
:100A5E00031801303C07BE00BF01BE1BBF033F0899
:100A6E00C0000030A3000030A2000330A100FF3010
:100A7E00A0004008F3003F08F2003E08F1003D08D8
:100A8E00F0000030F7000030F6000030F5000A30BC
:100A9E00F4000A128A1174220A128A117308831240
:100AAE000313A7007208A6007108A5007008A40021
:100ABE000A128A1124240A128A118312031323089C
:100ACE00C4002208C3002108C2002008C100440847
:100ADE00BA004308B9004208B8004108B7000A122C
:100AEE008A116E230A128A111F300A128A11CA2124
:100AFE000A128A11831203134408BA004308B9007C
:100B0E004208B8004108B7000A128A11A2260A123A
:100B1E008A113230F0000030F1000A128A11F121F0
:100B2E000A128A1108008030831603139F009F2D2E
:100B3E0083121F19A32DA42D9F2DA52D1E08BB00BA
:100B4E00BC013B08BC00BB01831603131E088312B5
:100B5E0003133B07BD000030031801303C07BE00F5
:100B6E00BF01BE1BBF033F08C0000030A300003012
:100B7E00A2000330A100FF30A0004008F3003F08A0
:100B8E00F2003E08F1003D08F0000030F7000030A2
:100B9E00F6000030F5000E30F4000A128A117422AD
:100BAE000A128A11730883120313A7007208A60093
:100BBE007108A5007008A4000A128A1124240A12D2
:100BCE008A11831203132308C4002208C3002108CC
:100BDE00C2002008C1004408BA004308B900420808
:100BEE00B8004108B7000A128A1116230A128A1198
:100BFE0017300A128A11CA210A128A11831203139C
:100C0E004408BA004308B9004208B8004108B700CA
:100C1E000A128A11BE220A128A113230F0000030F6
:100C2E00F1000A128A11F1210A128A11080080308D
:100C3E00831603139F00232E83121F19272E282E8F
:100C4E00232E292E1E08BB00BC013B08BC00BB0195
:100C5E00831603131E08831203133B07BD000030D7
:100C6E00031801303C07BE00BF01BE1BBF033F0887
:100C7E00C0000030A3000030A2000330A100FF30FE
:100C8E00A0004008F3003F08F2003E08F1003D08C6
:100C9E00F0000030F7000030F6000030F5000530AF
:100CAE00F4000A128A1174220A128A11730883122E
:100CBE000313A7007208A6007108A5007008A4000F
:100CCE000A128A1124240A128A118312031323088A
:100CDE00C4002208C3002108C2002008C100440835
:100CEE00BA004308B9004208B8004108B7000A121A
:100CFE008A11A9210A128A111B300A128A11CA21DD
:100D0E000A128A11831203134408BA004308B90069
:100D1E004208B8004108B7000A128A1151270A1278
:100D2E008A113230F0000030F1000A128A11F121DE
:100D3E000A128A110800003083120313A300003038
:100D4E00A2000330A100E830A0003A08A70039083D
:100D5E00A6003808A5003708A4000A128A11242418
:100D6E000A128A11831203132008303E0A128A11C6
:100D7E002B210A128A11003083120313B0000030A7
:100D8E00AF000030AE000A30AD000030A3000030DE
:100D9E00A2000030A1006430A0003A08A700390874
:100DAE00A6003808A5003708A4000A128A112424C8
:100DBE000A128A11831203132308B4002208B30007
:100DCE002108B2002008B1000A128A11C6230A12A5
:100DDE008A11831203132D08303E0A128A112B2119
:100DEE000A128A11003083120313B0000030AF00D4
:100DFE000030AE000A30AD000030A3000030A2007B
:100E0E000030A1000A30A0003A08A7003908A60059
:100E1E003808A5003708A4000A128A1124240A12E1
:100E2E008A11831203132308B4002208B300210889
:100E3E00B2002008B1000A128A11C6230A128A11C2
:100E4E00831203132D08303E0A128A112B210A1227
:100E5E008A11003083120313B0000030AF0000304F
:100E6E00AE000A30AD003A08B4003908B3003808B5
:100E7E00B2003708B1000A128A11C6230A128A116B
:100E8E00831203132D08303E0A128A112B210A12E7
:100E9E008A110800003083120313A3000030A20051
:100EAE000330A100E830A0003A08A7003908A600D8
:100EBE003808A5003708A4000A128A1124240A1241
:100ECE008A11831203132008303E0A128A112B2135
:100EDE000A128A11003083120313B0000030AF00E3
:100EEE000030AE000A30AD000030A3000030A2008A
:100EFE000030A1006430A0003A08A7003908A6000F
:100F0E003808A5003708A4000A128A1124240A12F0
:100F1E008A11831203132308B4002208B300210898
:100F2E00B2002008B1000A128A11C6230A128A11D1
:100F3E00831203132D08303E0A128A112B210A1236
:100F4E008A11003083120313B0000030AF0000305E
:100F5E00AE000A30AD000030A3000030A200003019
:100F6E00A1000A30A0003A08A7003908A6003808E8
:100F7E00A5003708A4000A128A1124240A128A1125
:100F8E00831203132308B4002208B3002108B20011
:100F9E002008B1000A128A11C6230A128A1183127E
:100FAE0003132D08303E0A128A112B210A128A11C0
:100FBE00003083120313B0000030AF000030AE00DB
:100FCE000A30AD003A08B4003908B3003808B20050
:100FDE003708B1000A128A11C6230A128A11831227
:100FEE0003132D08303E0A128A112B210A128A1180
:020FFE000800E9
:00000001FF
