:060000000A128A11842E91
:100D080083010A128A11B42E0A128A11A4260A1221
:100D18008A1183160313111408000A128A11A426D3
:100D28000A128A1183160313111508000A128A1170
:100D3800A4260A128A11700883120313930008006C
:100D4800A62EA62E8316031311081F39031DAD2ED8
:100D5800AE2EA62E1419B12EB22EA62EB32E080032
:100D6800003083120313B0000030AF000030AE0033
:100D78006430AD000A128A113D270A128A110A123C
:100D88008A1188260A128A11D030F0000030F1004A
:100D98000A128A119A260A128A118830F000003045
:100DA800F1000A128A119A260A128A110A128A1165
:100DB80091260A128A111A3083120313B7005E3083
:100DC800B6008630B500B50BE72EB60BE72EB70B8D
:100DD800E72E6400C32EC32E0A128A1100280030A1
:100DE800FC000030FB000030FA000030F900FC2E57
:100DF800701CFF2E002F182F7408F90775080311AF
:100E08000318013E0319092FFA077608031103187E
:100E1800013E0319102FFB07770803110318013E41
:100E28000319172FFC07182F0130F8000310F40DD1
:100E3800F50DF60DF70DF80B1A2F01300310F30C12
:100E4800F20CF10CF00CFF3E031D222F7308720404
:100E580071047004031D312F322FFC2E332F7C08B0
:100E6800F3007B08F2007A08F1007908F0003C2FC3
:100E780008008316031387150716283083120313F7
:100E88009400831603139101831203132D08B100F4
:100E98002E08B2002F08B3003008B4000230031047
:100EA800B10DB20DB30DB40DFF3E031D532F340821
:100EB800F3003308F2003208F1003108F000003086
:100EC800F7000030F6000030F5006430F4000A1234
:100ED8008A11F3260A128A11730883120313A300D6
:100EE8007208A2007108A1007008A0000130A700D4
:100EF8003130A6002D30A5000030A4000A128A1156
:100F080090270A128A11831203132008FF3E8316C2
:100F18000313930094010800003083120313AB00FD
:100F28000030AA000030A9000030A80023082204DD
:100F3800210420040319A12FA22FF62FAC010314BA
:100F4800AC0DB42F0130FD000310A00DA10DA20DB2
:100F5800A30DFD0BA82F0130FD007D08AC07B42FB1
:100F6800A31FB72FB82FA62FBA2FBA2F0130FD0015
:100F78000310A80DA90DAA0DAB0DFD0BBC2F23085E
:100F88002702031DD12F22082602031DD12F210875
:100F98002502031DD12F20082402031CD42FD52F8E
:100FA800E52F2008A4022108031C210FA50222080E
:100FB800031C220FA6022308031C230FA7022814D0
:100FC800E52F01300310A30CA20CA10CA00CFF3ECE
:100FD800031DE62F0130AC02031DF32FF42FBA2FA7
:100FE800F62FF62F2B08A3002A08A2002908A10033
:080FF8002808A000FF2F0800EB
:00000001FF
