:100000000A128A11132E00308A000408840A82071B
:1000100000344134443443342034563461346C3435
:0A0020007534653420343A3400349E
:100C260083010A128A117B2EF700770883120313B9
:100C360088000712871207170A30F0000030F1000B
:100C46000A128A119C260A128A11831203130713A9
:100C56000800F70077088312031388000716871227
:100C660007170A30F0000030F1000A128A119C269C
:100C76000A128A11831203130713080038300A1266
:100C86008A1117260A128A110C300A128A1117269F
:100C96000A128A1106300A128A1117260A128A11B6
:100CA60080300A128A1117260A128A110800F900E2
:100CB6006D2E790884000A128A1103200A128A11FD
:100CC6000A128A112C260A128A110130F8007808B5
:100CD600F9076D2E790884000A128A1103200A1278
:100CE6008A110038031D782E792E5C2E7A2E080084
:100CF600831603138801870105140A128A114126F7
:100D06000A128A1101300A128A115A260A128A1107
:100D16008C2EC0300A128A1117260A128A110A125C
:100D26008A116C270A128A118C2E8C2E0A128A11AD
:100D36000028F301F401CA2EF501F6017608803A7F
:100D4600FF0080307F02031DAA2EFA307502031CB5
:100D5600AD2EAE2EB02EC42EC42E0130F5070318CC
:100D6600F60A0030F6077608803AFF0080307F02E8
:100D7600031DBF2EFA307502031CC22EC32EB02EE1
:100D8600C42E0130F3070318F40A0030F407740880
:100D9600803AF2007108803A7202031DD42E700860
:100DA6007302031CD72ED82E9F2ED92E0800790841
:100DB60078040319DF2EE02E162FFD010314FD0D16
:100DC600F02E01300310F80DF90DFF3E031DE52E40
:100DD6000130FC007C08FD07F02EF91FF32EF42EDF
:100DE600E42EF62EF62E79087B02031DFC2E7808DB
:100DF6007A02031CFF2E002F072F7808FA027908C3
:100E0600031CFB03FB02072F01300310F90CF80C3F
:100E1600FF3E031D082F0130FD02031D132F142F63
:100E2600F62E162F162F7B08F901F9077A08F80116
:100E3600F8071D2F0800F501F60171087004031963
:100E4600252F262F642FF7010314F70D362F0130B7
:100E56000310F00DF10DFF3E031D2B2F0130F400A2
:100E66007408F707362FF11F392F3A2F2A2F3C2FF8
:100E76003C2F01300310F50DF60DFF3E031D3D2FEF
:100E860071087302031D492F70087202031C4C2F50
:100E96004D2F552F7008F2027108031CF303F3025D
:100EA6007514552F01300310F10CF00CFF3E031D95
:100EB600562F0130F702031D612F622F3C2F642F3E
:100EC600642F7608F101F1077508F001F0076B2F22
:100ED60008008030831603139F00453083120313E6
:100EE6009F00752F1F19782F792F752F7A2F1E08BF
:100EF600831603131E0783120313A000A101A10D7D
:100F0600E830F0000330F1002108F301F307200870
:100F1600F201F2070A128A111E270A128A117008B4
:100F2600303E0A128A112C260A128A110A30F8005B
:100F36000030F9006430F0000030F1008312031332
:100F46002108F301F3072008F201F2070A128A11B9
:100F56001E270A128A117108FB01FB077008FA01A5
:100F6600FA070A128A11DA260A128A117808303E1E
:100F76000A128A112C260A128A110A30F800003049
:100F8600F9000A30F0000030F10083120313210843
:100F9600F301F3072008F201F2070A128A111E274D
:100FA6000A128A117108FB01FB077008FA01FA0799
:100FB6000A128A11DA260A128A117808303E0A12B3
:100FC6008A112C260A128A110A30F8000030F9001C
:100FD600831203132108FB01FB072008FA01FA0715
:100FE6000A128A11DA260A128A117808303E0A1283
:0A0FF6008A112C260A128A11080045
:00000001FF
