:100000000A128A11592A00308A000408840A8207D9
:10001000003454347534723462346934643469346D
:10002000743479343A340034703448343A34003417
:10003000503448344934003454345534493400344D
:1004B20083010A128A11C62CF000700883120313FA
:1004C2009900632A0C1E662A672A632A0C12080006
:1004D200243083160313980090308312031398007C
:1004E200831603131815813099000800F700770866
:1004F2008312031386000710871007150A30F000D5
:100502000030F1000A128A1130230A128A11831272
:10051200031307110800F7007708831203138600FC
:100522000714871007150A30F0000030F1000A1294
:100532008A1130230A128A11831203130711080049
:1005420038300A128A1177220A128A110C300A12E2
:100552008A1177220A128A1106300A128A11772228
:100562000A128A1180300A128A1177220A128A111B
:100572000800F900CD2A790884000A128A110320A2
:100582000A128A110A128A118C220A128A11013065
:10059200F8007808F907CD2A790884000A128A112E
:1005A20003200A128A110038031DD82AD92ABC2A2C
:1005B200DA2A0800F100F201F301F32A7208710746
:1005C20084000A128A1103200A128A110A128A115D
:1005D2005D220A128A110130F2070318F30A003071
:1005E200F307F32A7208710784000A128A110320A2
:1005F2000A128A110038031DFF2A002BDF2A012B61
:1006020008008312031346084504031D092B0A2B15
:10061200182B4D309F008B300A128A1177220A1252
:100622008A110A128A1196250A128A11182B013090
:100632008312031345064604031D202B212B2F2B67
:1006420055309F00C4300A128A1177220A128A1189
:100652000A128A111C260A128A112F2B0800F30192
:10066200F4015E2BF501F6017608803AFF00803036
:100672007F02031D3E2BFA307502031C412B422BD5
:10068200442B582B582B0130F5070318F60A00307B
:10069200F6077608803AFF0080307F02031D532B55
:1006A200FA307502031C562B572B442B582B013062
:1006B200F3070318F40A0030F4077408803AF200D2
:1006C2007108803A7202031D682B70087302031CC2
:1006D2006B2B6C2B332B6D2B08000030FC00003091
:1006E200FB000030FA000030F900772B701C7A2BE7
:1006F2007B2B932B7408F907750803110318013E2D
:100702000319842BFA07760803110318013E031913
:100712008B2BFB07770803110318013E0319922B59
:10072200FC07932B0130F8000310F40DF50DF60DC4
:10073200F70DF80B952B01300310F30CF20CF10CB2
:10074200F00CFF3E031D9D2B7308720471047004AC
:10075200031DAC2BAD2B772BAE2B7C08F3007B0853
:10076200F2007A08F1007908F000B72B0800003097
:1007720083120313B0000030AF000030AE000A3025
:10078200AD000030A3000030A2000030A1000A300A
:10079200A0003A08A7003908A6003808A5003708C3
:1007A200A4000A128A1126250A128A11831203133F
:1007B2002308B4002208B3002108B2002008B100C7
:1007C2000A128A1168240A128A11831203132D084D
:1007D200303E0A128A115D220A128A1100308312F7
:1007E2000313B0000030AF000030AE000A30AD009D
:1007F2003A08B4003908B3003808B2003708B1002B
:100802000A128A1168240A128A11831203132D080C
:10081200303E0A128A115D220A128A110800003043
:1008220083120313B0000030AF000030AE000A3074
:10083200AD000030A3000030A2000030A1000A3059
:10084200A0003A08A7003908A6003808A500370812
:10085200A4000A128A1126250A128A11831203138E
:100862002308B4002208B3002108B2002008B10016
:100872000A128A1168240A128A11831203132D089C
:10088200303E0A128A118C220A128A110030831217
:100892000313B0000030AF000030AE000A30AD00EC
:1008A2003A08B4003908B3003808B2003708B1007A
:1008B2000A128A1168240A128A11831203132D085C
:1008C200303E0A128A118C220A128A1108008312FF
:1008D200031330082F042E042D040319712C722CDB
:1008E200BC2CB6010314B60D842C0130B5000310E4
:1008F200AD0DAE0DAF0DB00DB50B782C0130B500BE
:100902003508B607842CB01F872C882C762C8A2CAD
:100912008A2C30083402031D982C2F083302031D41
:10092200982C2E083202031D982C2D083102031C2C
:100932009B2C9C2CAB2C2D08B1022E08031C2E0FD5
:10094200B2022F08031C2F0FB3023008031C300F12
:10095200B402AB2C01300310B00CAF0CAE0CAD0CDA
:10096200FF3E031DAC2C0130B602031DB92CBA2C7C
:100972008A2CBC2CBC2C3408B0003308AF003208DF
:10098200AE003108AD00C52C0800831603138601A2
:1009920007138717071087100711880105140A1219
:1009A2008A1169220A128A1168300A128A115D229A
:1009B2000A128A110A128A11A1220A128A1180309D
:1009C2000A128A1177220A128A1101300A128A1136
:1009D200BA220A128A11C0300A128A1177220A1226
:1009E2008A110C300A128A11BA220A128A11F92CBF
:1009F200003083120313C5000030C6000A128A11A8
:100A020002230A128A11F430F0000130F1000A12B6
:100A12008A1130230A128A11013083120313C5008E
:100A22000030C6000A128A1102230A128A11F43017
:100A3200F0000130F1000A128A1130230A128A11E1
:100A4200F92CF92C0A128A110028003083120313A0
:100A5200AB000030AA000030A9000030A800230833
:100A62002204210420040319372D382D8C2DAC01CA
:100A72000314AC0D4A2D0130FD000310A00DA10D91
:100A8200A20DA30DFD0B3E2D0130FD007D08AC072C
:100A92004A2DA31F4D2D4E2D3C2D502D502D013092
:100AA200FD000310A80DA90DAA0DAB0DFD0B522DD3
:100AB20023082702031D672D22082602031D672D26
:100AC20021082502031D672D20082402031C6A2D1C
:100AD2006B2D7B2D2008A4022108031C210FA502E7
:100AE2002208031C220FA6022308031C230FA702BD
:100AF20028147B2D01300310A30CA20CA10CA00C16
:100B0200FF3E031D7C2D0130AC02031D892D8A2D71
:100B1200502D8C2D8C2D2B08A3002A08A200290809
:100B2200A1002808A000952D080080308316031329
:100B32009F009B2D83121F199F2DA02D9B2DA12D50
:100B42001E08BB00BC013B08BC00BB01831603139B
:100B52001E08831203133B07BD0000300318013047
:100B62003C07BE00BF01BE1BBF033F08C0000030F0
:100B7200A3000030A2000330A100FF30A000400813
:100B8200F3003F08F2003E08F1003D08F00000309B
:100B9200F7000030F6000730F500D030F4000A12FA
:100BA2008A116E230A128A11730883120313A70093
:100BB2007208A6007108A5007008A4000A128A1122
:100BC20026250A128A11831203132308C40022085D
:100BD200C3002108C2002008C10014300A128A1181
:100BE200DB220A128A11831203134408BA00430853
:100BF200B9004208B8004108B7000A128A11A226B9
:100C02000A128A11831203134408BA004308B90076
:100C12004208B8004108B7000A128A1151270A1285
:100C22008A116430F0000030F1000A128A11302378
:100C32000A128A1108008030831603139F00212EA6
:100C420083121F19252E262E212E272E1E08BB00A9
:100C5200BC013B08BC00BB01831603131E088312B0
:100C620003133B07BD000030031801303C07BE00F0
:100C7200BF01BE1BBF033F08C0000030A30000300D
:100C8200A2000330A100FF30A0004008F3003F089B
:100C9200F2003E08F1003D08F0000030F70000309D
:100CA200F6000030F5000E30F4000A128A116E23AD
:100CB2000A128A11730883120313A7007208A6008E
:100CC2007108A5007008A4000A128A1126250A12CA
:100CD2008A11831203132308C4002208C3002108C7
:100CE200C2002008C10010300A128A11DB220A1247
:100CF2008A11831203134408BA004308B900420858
:100D0200B8004108B7000A128A11B8230A128A11E0
:100D1200831203134408BA004308B9004208B8001A
:100D22004108B7000A128A1110240A128A1164308B
:100D3200F0000030F1000A128A1130230A128A11DF
:100D42000800003083120313A3000030A200033016
:100D5200A100E830A0003A08A7003908A600380828
:100D6200A5003708A4000A128A1126250A128A1140
:100D7200831203132008303E0A128A115D220A12DE
:100D82008A11003083120313B0000030AF0000302C
:100D9200AE000A30AD000030A3000030A2000030E7
:100DA200A1006430A0003A08A7003908A60038085C
:100DB200A5003708A4000A128A1126250A128A11F0
:100DC200831203132308B4002208B3002108B200DF
:100DD2002008B1000A128A1168240A128A118312A9
:100DE20003132D08303E0A128A115D220A128A115B
:100DF200003083120313B0000030AF000030AE00A9
:100E02000A30AD000030A3000030A2000030A10083
:100E12000A30A0003A08A7003908A6003808A50041
:100E22003708A4000A128A1126250A128A1183128F
:100E320003132308B4002208B3002108B2002008DB
:100E4200B1000A128A1168240A128A11831203134A
:100E52002D08303E0A128A115D220A128A110030D0
:100E620083120313B0000030AF000030AE000A302E
:100E7200AD003A08B4003908B3003808B2003708A8
:100E8200B1000A128A1168240A128A11831203130A
:100E92002D08303E0A128A115D220A128A110800B8
:100EA200003083120313A3000030A2000330A1001C
:100EB200E830A0003A08A7003908A6003808A500C3
:100EC2003708A4000A128A1126250A128A118312EF
:100ED20003132008303E0A128A118C220A128A1148
:100EE200003083120313B0000030AF000030AE00B8
:100EF2000A30AD000030A3000030A2000030A10093
:100F02006430A0003A08A7003908A6003808A500F6
:100F12003708A4000A128A1126250A128A1183129E
:100F220003132308B4002208B3002108B2002008EA
:100F3200B1000A128A1168240A128A118312031359
:100F42002D08303E0A128A118C220A128A110030B0
:100F520083120313B0000030AF000030AE000A303D
:100F6200AD000030A3000030A2000030A1000A3022
:100F7200A0003A08A7003908A6003808A5003708DB
:100F8200A4000A128A1126250A128A118312031357
:100F92002308B4002208B3002108B2002008B100DF
:100FA2000A128A1168240A128A11831203132D0865
:100FB200303E0A128A118C220A128A1100308312E0
:100FC2000313B0000030AF000030AE000A30AD00B5
:100FD2003A08B4003908B3003808B2003708B10043
:100FE2000A128A1168240A128A11831203132D0825
:0E0FF200303E0A128A118C220A128A1108005F
:00000001FF
