:060000000A128A11AB2F69
:100F560083010A128A11AF2F8316031307110C306F
:100F6600831203139700023092003D308316031359
:100F76009200F301F4017408803AFF0080307F028A
:100F8600031DC72F3A307302031CCA2FCB2FCD2F58
:100F9600FC2FFC2F73088312031395008C1091010C
:100FA6001215D52F8C1CD82FD92FD52FDA2F033019
:100FB600F2008A30F1005630F000F00BE02FF10B12
:100FC600E02FF20BE02FE72F0130F3070318F40AA6
:100FD6000030F4077408803AFF0080307F02031D5A
:100FE600F62F3A307302031CF92FFA2FCD2FFC2F60
:0A0FF600FC2FFC2F0A128A110028BC
:00000001FF
