:100000000A128A110A2E00308A000408840A820724
:1000100000344134443443342034563461346C3435
:0A0020007534653420343A3400349E
:100C140083010A128A11722EF700770883120313D4
:100C240088000712871207170A30F0000030F1001D
:100C34000A128A1193260A128A11831203130713C4
:100C44000800F70077088312031388000716871239
:100C540007170A30F0000030F1000A128A119326B7
:100C64000A128A11831203130713080038300A1278
:100C74008A110E260A128A110C300A128A110E26C3
:100C84000A128A1106300A128A110E260A128A11D1
:100C940080300A128A110E260A128A110800F900FD
:100CA400642E790884000A128A1103200A128A1118
:100CB4000A128A1123260A128A110130F8007808D0
:100CC400F907642E790884000A128A1103200A1293
:100CD4008A110038031D6F2E702E532E712E0800BA
:100CE400831603138801870105140A128A11382612
:100CF4000A128A1101300A128A1151260A128A1123
:100D0400832EC0300A128A110E260A128A110A1280
:100D14008A1163270A128A11832E832E0A128A11DA
:100D24000028F301F401C12EF501F6017608803A9A
:100D3400FF0080307F02031DA12EFA307502031CD0
:100D4400A42EA52EA72EBB2EBB2E0130F50703180B
:100D5400F60A0030F6077608803AFF0080307F02FA
:100D6400031DB62EFA307502031CB92EBA2EA72E17
:100D7400BB2E0130F3070318F40A0030F40774089B
:100D8400803AF2007108803A7202031DCB2E70087B
:100D94007302031CCE2ECF2E962ED02E0800790877
:100DA40078040319D62ED72E0D2FFD010314FD0D43
:100DB400E72E01300310F80DF90DFF3E031DDC2E64
:100DC4000130FC007C08FD07E72EF91FEA2EEB2E0C
:100DD400DB2EED2EED2E79087B02031DF32E780811
:100DE4007A02031CF62EF72EFE2E7808FA027908F2
:100DF400031CFB03FB02FE2E01300310F90CF80C5C
:100E0400FF3E031DFF2E0130FD02031D0A2F0B2F91
:100E1400ED2E0D2F0D2F7B08F901F9077A08F80143
:100E2400F807142F0800F501F6017108700403197E
:100E34001C2F1D2F5B2FF7010314F70D2D2F0130ED
:100E44000310F00DF10DFF3E031D222F0130F400BD
:100E54007408F7072D2FF11F302F312F212F332F37
:100E6400332F01300310F50DF60DFF3E031D342F13
:100E740071087302031D402F70087202031C432F74
:100E8400442F4C2F7008F2027108031CF303F30281
:100E940075144C2F01300310F10CF00CFF3E031DB0
:100EA4004D2F0130F702031D582F592F332F5B2F7D
:100EB4005B2F7608F101F1077508F001F007622F46
:100EC40008008030831603139F00453083120313F8
:100ED4009F006C2F1F196F2F702F6C2F712F1E08FE
:100EE400A000A1012008A100A001831603131E087D
:100EF400831203132007A2000030031801302107D6
:100F0400A300E830F0000330F1002308F301F307F5
:100F14002208F201F2070A128A1115270A128A110D
:100F24007008303E0A128A1123260A128A110A30E6
:100F3400F8000030F9006430F0000030F100831252
:100F440003132308F301F3072208F201F2070A123C
:100F54008A1115270A128A117108FB01FB07700810
:100F6400FA01FA070A128A11D1260A128A1178089C
:100F7400303E0A128A1123260A128A110A30F80016
:100F84000030F9000A30F0000030F100831203133E
:100F94002308F301F3072208F201F2070A128A1167
:100FA40015270A128A117108FB01FB077008FA0160
:100FB400FA070A128A11D1260A128A117808303ED9
:100FC4000A128A1123260A128A110A30F800003004
:100FD400F900831203132308FB01FB072208FA011B
:100FE400FA070A128A11D1260A128A117808303EA9
:0C0FF4000A128A1123260A128A11080032
:00000001FF
