:060000000A128A11B92F5B
:100F720083010A128A11E22FBE2F831203138C1EE1
:100F8200C32FC42FBE2F8C121A08C72F0800F000DF
:100F92007008831203139900CE2F0C1ED12FD22F6B
:100FA200CE2F0C12080024308316031398009030C1
:100FB20083120313980083160313181581309900C6
:100FC200080083160313071387170A128A11D427FE
:100FD2000A128A1168300A128A11C8270A128A1163
:100FE2000A128A11BD270A128A110A128A11C82707
:0E0FF2000A128A11F12FF12F0A128A1100281B
:00000001FF
