:060000000A128A11A82D6E
:100B5000B50183010A128A11122E0A128A11D225B6
:100B60000A128A1183160313111408000A128A113B
:100B7000D2250A128A1183160313911408000A124F
:100B80008A11D2250A128A1183160313111508003F
:100B90000A128A11D2250A128A11700883120313CD
:100BA00093000800D42DD42D8316031311081F3988
:100BB000031DDB2DDC2DD42D1419DF2DE02DD42DBC
:100BC000E12D08000A128A11D2250A128A11831611
:100BD000031391150A128A11D2250A128A1183125F
:100BE00003131308F200F3017208F4007308F50010
:100BF0000A128A11D2250A128A1171087004031987
:100C0000022E062E831603139116092E8316031344
:100C1000911211167508F101F1077408F001F0073F
:100C2000112E08008316031388010030831203136A
:100C3000B0000030AF000030AE006430AD000A12EA
:100C40008A118C260A128A112730F2000030F30034
:100C5000A230F4000030F5000A128A11DF260A12D1
:100C60008A112730F6000030F7000A128A11332764
:100C70000A128A118312031388003E2E3E2E0A1296
:100C80008A1100280030FC000030FB000030FA0020
:100C90000030F9004B2E701C4E2E4F2E672E74081C
:100CA000F907750803110318013E0319582EFA07B6
:100CB000760803110318013E03195F2EFB0777081E
:100CC00003110318013E0319662EFC07672E01303D
:100CD000F8000310F40DF50DF60DF70DF80B692E65
:100CE00001300310F30CF20CF10CF00CFF3E031D6D
:100CF000712E7308720471047004031D802E812EFE
:100D00004B2E822E7C08F3007B08F2007A08F1005B
:100D10007908F0008B2E0800831603138715071639
:100D20002830831203139400831603139101831256
:100D300003132D08B1002E08B2002F08B3003008AD
:100D4000B40002300310B10DB20DB30DB40DFF3E6F
:100D5000031DA22E3408F3003308F2003208F1001C
:100D60003108F0000030F7000030F6000030F500E8
:100D70006430F4000A128A1142260A128A1173089A
:100D800083120313A3007208A2007108A100700867
:100D9000A0000130A7003130A6002D30A5000030A2
:100DA000A4000A128A1190270A128A1183120313CF
:100DB0002008FF3E831603139300940108000A12D3
:100DC0008A11AD250A128A11A030F0000030F1001E
:100DD0000A128A11C8250A128A117308F7007208CC
:100DE000F60004300310F70CF60CFF3E031DF22E44
:100DF0007608F800780883120313B5003508F6006A
:100E0000F7017608F0007708F1000A128A11C82568
:100E10000A128A117308F101F1077208F001F00754
:100E20000A128A11C8250A128A117508F101F10700
:100E30007408F001F0070A128A11C8250A128A11F3
:100E40000A128A11BF250A128A110630F8001330DF
:100E5000F700B130F600F60B2B2FF70B2B2FF80B0A
:100E60002B2F322F08000A128A11AD250A128A117F
:100E7000A030F0000030F1000A128A11C8250A12D1
:100E80008A117708F9007608F80004300310F90C8D
:100E9000F80CFF3E031D462F7808FA007A088312EB
:100EA0000313B5003508F800F9017808F000790857
:100EB000F1000A128A11C8250A128A117708F10175
:100EC000F1077608F001F0070A128A11C8250A1204
:100ED0008A110A128A11B6250A128A11A130F0006D
:100EE0000030F1000A128A11C8250A128A11013055
:100EF000F0000030F1000A128A11E2250A128A116C
:100F00007008F800780883120313B5000A128A11DA
:100F1000BF250A128A118312031335088F2F080088
:100F2000003083120313AB000030AA000030A90088
:100F30000030A80023082204210420040319A12F53
:100F4000A22FF62FAC010314AC0DB42F0130FD001D
:100F50000310A00DA10DA20DA30DFD0BA82F0130B4
:100F6000FD007D08AC07B42FA31FB72FB82FA62F05
:100F7000BA2FBA2F0130FD000310A80DA90DAA0D3C
:100F8000AB0DFD0BBC2F23082702031DD12F220818
:100F90002602031DD12F21082502031DD12F200871
:100FA0002402031CD42FD52FE52F2008A4022108EA
:100FB000031C210FA5022208031C220FA6022308EE
:100FC000031C230FA7022814E52F01300310A30CE4
:100FD000A20CA10CA00CFF3E031DE62F0130AC02B9
:100FE000031DF32FF42FBA2FF62FF62F2B08A30093
:100FF0002A08A2002908A1002808A000FF2F080045
:00000001FF
