:100000000A128A11EC2E00308A000408840A820742
:100010000034683465346C346C346F342034773495
:0A0020006F3472346C346434003421
:100DD80083010A128A112F2F0A128A110F270A1269
:100DE8008A1183160313111408000A128A110F2797
:100DF8000A128A118316031311150800283083126A
:100E08000313940083160313910194013130930066
:100E1800871507160800102F831603131419152FAA
:100E2800162F102F11081F39031D1B2F1C2F102FD1
:100E38001D2F0800F0000A128A110F270A128A11C2
:100E48007008831203139300292F8C1D2C2F2D2F2C
:100E5800292F8C1108000A128A1102270A128A11F6
:100E68000A128A1144270A128A1101300A128A11B9
:100E78005D270A128A11402F402F0A128A11002872
:100E880002300A128A117E270A128A1128300A12A1
:100E98008A117E270A128A110C300A128A117E27BB
:100EA8000A128A1180300A128A117E270A128A11C0
:100EB8000800F700702F770884000A128A110320AF
:100EC8000A128A110A128A11BF270A128A110130DE
:100ED800F6007608F707702F770884000A128A113F
:100EE80003200A128A110038031D7B2F7C2F5F2FE5
:100EF8007D2F0800F3007308F10003300310F10D93
:100F0800FF3E031D822F0310710DF039F2007208A5
:100F1800F4007308F039F1007108F5000A128A111B
:100F2800F0260A128A114E300A128A111E270A1256
:100F38008A1175080C380A128A111E270A128A119A
:100F4800750808380A128A111E270A128A117408AD
:100F58000C380A128A111E270A128A1174080838D6
:100F68000A128A111E270A128A110A128A11F926F0
:100F78000A128A110800F3007308F1000330031005
:100F8800F10DFF3E031DC32F0310710DF039F20060
:100F98007208F4007308F039F1007108F5000A12BC
:100FA8008A11F0260A128A114E300A128A111E2757
:100FB8000A128A1175080D380A128A111E270A1298
:100FC8008A11750809380A128A111E270A128A110D
:100FD80074080D380A128A111E270A128A11740819
:100FE80009380A128A111E270A128A110A128A114E
:080FF800F9260A128A11080013
:00000001FF
