:060000000A128A11452FCF
:100E7A00013403340234063404340C34083409349B
:100E8A0083133230FD000730FE003D30FF002A3068
:100E9A0084000A128A115B270A128A1183010A1234
:100EAA008A11A82F7E088A007F0882000A128A11F6
:100EBA0057270A128A118000840A04087D0603193A
:100ECA000034FF0A0319FE0A5B2FF301F401982F7D
:100EDA00F501F6017608803AFF0080307F02031D93
:100EEA00782F64307502031C7B2F7C2F7E2F922F64
:100EFA00922F0130F5070318F60A0030F607760834
:100F0A00803AFF0080307F02031D8D2F6430750206
:100F1A00031C902F912F7E2F922F0130F307031875
:100F2A00F40A0030F4077408803AF2007108803A33
:100F3A007202031DA22F70087302031CA52FA62F8D
:100F4A006D2FA72F08008316031387012030840012
:100F5A002A30F7000408F8000830F90077088400FE
:100F6A0083130008FA00F70A780884007A088000D8
:100F7A00F80AF90BB32FC12F83120313A801A90191
:100F8A002908803AFF0080307F02031DCE2F0830E7
:100F9A002802031CD12FD22FD42FC12FC12F831285
:100FAA0003132808203E8400831300088700E830D2
:100FBA00F0000330F1000A128A116A270A128A1114
:100FCA00013083120313A8070318A90A0030A907DE
:100FDA002908803AFF0080307F02031DF62F08306F
:100FEA002802031CF92FFA2FD42FC12FC12FC12F8A
:060FFA000A128A11002812
:00000001FF
