:060000000A128A113A2FDA
:100E5A008316031387120711940120308312031398
:100E6A009400831603138711080083134430FD008E
:100E7A000730FE007C30FF00203084000A128A11FD
:100E8A0050270A128A1183010A128A11A02F7E089A
:100E9A008A007F0882000A128A114C270A128A11D4
:100EAA008000840A04087D0603190034FF0A031926
:100EBA00FE0A502FF10083120313071171089300E1
:100ECA00662F83160313141C6B2F6C2F662F6D2F3E
:100EDA007008831203139300722F83160313141CD2
:100EEA00772F782F722F83120313071508003F34C8
:100EFA000034063400345B3400344F340034663432
:100F0A0000346D3400347C340034073400347F34C8
:100F1A0000346F34003401340034023400340334B2
:100F2A000034043400340534003406340034073401
:100F3A000034083400348312031307150A128A1185
:100F4A002D270A128A1183120313D201D301D00169
:100F5A00D101CE01CF01CC01CD01CA01CB01C8011B
:100F6A00C901C601C701C401C5010F30F2007208E8
:100F7A00F0000A300A128A115F270A128A11073012
:100F8A00F2007208F0000B300A128A115F270A1267
:100F9A008A11F0010314F00D0C300A128A115F272E
:100FAA000A128A11831203132008F2007208F00051
:100FBA0042080A128A115F270A128A11831203133E
:100FCA002A08F2007208F00040080A128A115F2704
:100FDA000A128A11831203132208F2007208F0001F
:100FEA003E080A128A115F270A128A11FC2FFC2F67
:060FFA000A128A11002812
:00000001FF
