:060000000A128A11F52A24
:1004EE0064008001840A0406031900340406782A85
:1004FE00831603138610061183120313061186103A
:10050E00080083160313051480309F0045308312B4
:10051E0003139F000800831603138712071194011B
:10052E0020308312031394008316031387110800DF
:10053E000134003402340034033400340434003403
:10054E0005340034063400340734003408340034E3
:10055E001E3400347E088A007F0882000A128A1137
:10056E00B1220A128A118000840A04087D0603193A
:10057E000034FF0A0319FE0AB52A3F34003406344C
:10058E0000345B3400344F340034663400346D3440
:10059E0000347C340034073400347F3400346F343C
:1005AE00003483120313B800071138089300DF2AB2
:1005BE0083160313141CE42AE52ADF2AE62A831283
:1005CE00031337089300EB2A83160313141CF02A27
:1005DE00F12AEB2A831203130715080083134D30FB
:1005EE0084005D300A128A1177220A128A11B43001
:1005FE00FD000230FE00C430FF00A03084000A125D
:10060E008A11B5220A128A114D30FD000230FE0009
:10061E009F30FF003B3084000A128A11B5220A1265
:10062E008A1183010A128A111C2B0A128A11452380
:10063E000A128A110A128A1188220A128A110A12C1
:10064E008A117F220A128A112C2B0A128A11D7269E
:10065E000A128A110A128A1171230A128A110A12B7
:10066E008A112C260A128A110A128A1126240A12BB
:10067E008A112C2B2C2B0A128A1100288312031399
:10068E0007150A128A1192220A128A110F3083124A
:10069E000313B9003908B7000A300A128A11D8229A
:1006AE000A128A11073083120313B9003908B700F2
:1006BE000B300A128A11D8220A128A1183120313DE
:1006CE00B7010314B70D0C300A128A11D8220A1280
:1006DE008A110800831203130718762B772B872BAA
:1006EE000130CB070318CC0A0030CC07B430F00031
:1006FE000030F1000A128A119E230A128A11872BEA
:10070E008312031387188C2B8D2B9D2BFF30CB0759
:10071E000318CC0AFF30CC07B430F0000030F100E3
:10072E000A128A119E230A128A119D2B0800F301C8
:10073E00F401CC2BF501F6017608803AFF008030EB
:10074E007F02031DAC2BFA307502031CAF2BB02BAE
:10075E00B22BC62BC62B0130F5070318F60A003054
:10076E00F6077608803AFF0080307F02031DC12B0A
:10077E00FA307502031CC42BC52BB22BC62B0130CD
:10078E00F3070318F40A0030F4077408803AF200F5
:10079E007108803A7202031DD62B70087302031C77
:1007AE00D92BDA2BA12BDB2B08000030FC000030FC
:1007BE00FB000030FA000030F900E52B701CE82B2E
:1007CE00E92B012C7408F907750803110318013E73
:1007DE000319F22BFA07760803110318013E0319C9
:1007EE00F92BFB07770803110318013E0319002CA0
:1007FE00FC07012C0130F8000310F40DF50DF60D79
:10080E00F70DF80B032C01300310F30CF20CF10C66
:10081E00F00CFF3E031D0B2C730872047104700460
:10082E00031D1A2C1B2CE52B1C2C7C08F3007B08BB
:10083E00F2007A08F1007908F000252C08008312E6
:10084E00031350084F044E044D0403192F2C302C63
:10085E00812C4B08F7004C08F8000030F81BFF30D5
:10086E00F900FA0050087A02031D472C4F0879024E
:10087E00031D472C4E087802031D472C4D087702A6
:10088E0003184A2C4B2C572C061586100A30F000F4
:10089E000030F1000A128A119E230A128A11572C77
:1008AE00831203134B08F7004C08F8000030F81BB6
:1008BE00FF30F900FA007A085002031D702C7908F7
:1008CE004F02031D702C78084E02031D702C770802
:1008DE004D020318732C742C812C861406110A30C9
:1008EE00F0000030F1000A128A119E230A128A11BA
:1008FE00812C812C08008312031330082F042E0440
:10090E002D0403198B2C8C2CD62CB6010314B60D8A
:10091E009E2C0130B5000310AD0DAE0DAF0DB00D18
:10092E00B50B922C0130B5003508B6079E2CB01FC2
:10093E00A12CA22C902CA42CA42C30083402031D24
:10094E00B22C2F083302031DB22C2E083202031DC7
:10095E00B22C2D083102031CB52CB62CC52C2D083B
:10096E00B1022E08031C2E0FB2022F08031C2F0FEC
:10097E00B3023008031C300FB402C52C0130031033
:10098E00B00CAF0CAE0CAD0CFF3E031DC62C0130EF
:10099E00B602031DD32CD42CA42CD62CD62C340862
:1009AE00B0003308AF003208AE003108AD00DF2CC6
:1009BE00080083120313A101FC1FE62CE72CF02C78
:1009CE00FB09FC09FB0A0319FC0AA1010314A10D82
:1009DE00F02CFA1FF32CF42CFA2CF909FA09F90A67
:1009EE000319FA0AFA2C7A0879040319FF2C002D40
:1009FE00362DA0010314A00D102D01300310F90D9A
:100A0E00FA0DFF3E031D052D0130FD007D08A007E8
:100A1E00102DFA1F132D142D042D162D162D7A08B8
:100A2E007C02031D1C2D79087B02031C1F2D202D1B
:100A3E00272D7908FB027A08031CFC03FC02272DE4
:100A4E0001300310FA0CF90CFF3E031D282D013066
:100A5E00A002031D332D342D162D362D362D2108D3
:100A6E00031D3A2D402DFB09FC09FB0A0319FC0A54
:100A7E00402D7C08FA01FA077B08F901F907472D8A
:100A8E000800003083120313AB000030AA000030C0
:100A9E00A9000030A8002308220421042004031911
:100AAE00592D5A2DAE2DAC010314AC0D6C2D013009
:100ABE00FD000310A00DA10DA20DA30DFD0B602DC9
:100ACE000130FD007D08AC076C2DA31F6F2D702D1E
:100ADE005E2D722D722D0130FD000310A80DA90D93
:100AEE00AA0DAB0DFD0B742D23082702031D892DB6
:100AFE0022082602031D892D21082502031D892D9A
:100B0E0020082402031C8C2D8D2D9D2D2008A4025F
:100B1E002108031C210FA5022208031C220FA60286
:100B2E002308031C230FA70228149D2D0130031048
:100B3E00A30CA20CA10CA00CFF3E031D9E2D013098
:100B4E00AC02031DAB2DAC2D722DAE2DAE2D2B0890
:100B5E00A3002A08A2002908A1002808A000B72D8A
:100B6E000800F601F11FBC2DBD2DC62DF009F109AF
:100B7E00F00A0319F10AF6010314F60DC62DF31F40
:100B8E00C92DCA2DD42DF209F309F20A0319F30A5D
:100B9E000130F4007408F606D42DF701F80171083F
:100BAE0070040319DB2DDC2D1A2EF5010314F50D3F
:100BBE00EC2D01300310F00DF10DFF3E031DE12D64
:100BCE000130F4007408F507EC2DF11FEF2DF02D18
:100BDE00E02DF22DF22D01300310F70DF80DFF3E32
:100BEE00031DF32D71087302031DFF2D7008720291
:100BFE00031C022E032E0B2E7008F2027108031C2A
:100C0E00F303F30277140B2E01300310F10CF00CEA
:100C1E00FF3E031D0C2E0130F502031D172E182E5C
:100C2E00F22D1A2E1A2E7608031D1E2E242EF709CB
:100C3E00F809F70A0319F80A242E7808F101F107CA
:100C4E007708F001F0072B2E0800E830F000033093
:100C5E00F100831203134C08F301F3074B08F20162
:100C6E00F2070A128A11B8250A128A117008831225
:100C7E000313B9003907A03E840083130008BA009D
:100C8E003A08B70049080A128A11D8220A128A11A4
:100C9E000A30F9000030FA006430F0000030F10044
:100CAE00831203134C08F301F3074B08F201F2070A
:100CBE000A128A11B8250A128A117108FC01FC0762
:100CCE007008FB01FB070A128A11E0240A128A112E
:100CDE00790883120313B9003907A03E84008313E9
:100CEE000008BA003A08B70047080A128A11D8223B
:100CFE000A128A110A30F9000030FA000A30F000A8
:100D0E000030F100831203134C08F301F3074B0874
:100D1E00F201F2070A128A11B8250A128A11710815
:100D2E00FC01FC077008FB01FB070A128A11E02484
:100D3E000A128A11790883120313B9003907A03EEB
:100D4E00840083130008BA003A08B70045080A1257
:100D5E008A11D8220A128A110A30F9000030FA00DC
:100D6E00831203134C08FC01FC074B08FB01FB0725
:100D7E000A128A11E0240A128A11790883120313C7
:100D8E00B9003907A03E840083130008BA003A0860
:100D9E00B70043080A128A11D8220A128A110800D3
:100DAE00D82E831203131F19DD2EDE2ED82EDF2E22
:100DBE001E08B900BA013908BA00B9018316031327
:100DCE001E08831203133907D100003003180130B7
:100DDE003A07D200D301D21BD3035308D4000030FC
:100DEE00A3000030A2000330A100FF30A000540881
:100DFE00F3005308F2005208F1005108F0000030E1
:100E0E00F7000030F6000030F5009630F4000A12BC
:100E1E008A11DC230A128A11730883120313A700A6
:100E2E007208A6007108A5007008A4000A128A11A3
:100E3E0048250A128A11831203132308D0002208B0
:100E4E00CF002108CE002008CD000030A3000030D6
:100E5E00A2000330A100E830A0005008A7004F0800
:100E6E00A6004E08A5004D08A4000A128A114825B6
:100E7E000A128A11831203132008B9003907A03E03
:100E8E00840083130008BA003A08B70041080A121A
:100E9E008A11D8220A128A11003083120313B0006D
:100EAE000030AF000030AE000A30AD000030A300BD
:100EBE000030A2000030A1006430A0005008A7004E
:100ECE004F08A6004E08A5004D08A4000A128A116C
:100EDE0048250A128A11831203132308B40022082C
:100EEE00B3002108B2002008B1000A128A11822430
:100EFE000A128A11831203132D08B9003907A03E76
:100F0E00840083130008BA003A08B7003F080A129B
:100F1E008A11D8220A128A11003083120313B000EC
:100F2E000030AF000030AE000A30AD000030A3003C
:100F3E000030A2000030A1000A30A0005008A70027
:100F4E004F08A6004E08A5004D08A4000A128A11EB
:100F5E0048250A128A11831203132308B4002208AB
:100F6E00B3002108B2002008B1000A128A118224AF
:100F7E000A128A11831203132D08B9003907A03EF5
:100F8E00840083130008BA003A08B7003D080A121D
:100F9E008A11D8220A128A11003083120313B0006C
:100FAE000030AF000030AE000A30AD005008B40083
:100FBE004F08B3004E08B2004D08B1000A128A1154
:100FCE0082240A128A11831203132D08B9003907DD
:100FDE00A03E840083130008BA003A08B7003B080D
:100FEE000A128A11D8220A128A11831203131F15AC
:020FFE000800E9
:00000001FF
