:100000000A128A11EB2C00308A000408840A820745
:100010000034413452344134563449344E3454342B
:1000200048340034573445344C3443344F344D3421
:1000300045340034543469346D3465340034443408
:080040006134743465340034AE
:1009A0000A128A1110250A128A11831603131114D0
:1009B00008000A128A1110250A128A1183160313DD
:1009C000911408000A128A1110250A128A1183163E
:1009D000031311150800FC01FD01A001A101A201F2
:1009E000A30183010A128A113D2E283083120313BA
:1009F00094008316031391019401313093008715FD
:100A000007160800F10071080F39F0007008F200B5
:100A10007208303EF0007008F20072080F2D0800D6
:100A2000112D831603131419162D172D112D1108CE
:100A30001F39031D1C2D1D2D112D1E2D0800F0002A
:100A40000A128A1110250A128A11700883120313E0
:100A500093002A2D8C1D2D2D2E2D2A2D8C11080052
:100A6000F2007208F00004300310F00CFF3E031D8A
:100A7000342D7008F1007108F3007308303EF00067
:100A80007008F3007308442D0800F70077088312FC
:100A9000031388000610861006150A30F000003097
:100AA000F1000A128A11FF250A128A118312031318
:100AB00006110800F7007708831203138800061454
:100AC000861006150A30F0000030F1000A128A1173
:100AD000FF250A128A1183120313061108000A1255
:100AE0008A1110250A128A11831603139115782D85
:100AF00083128C1D7C2D7D2D782D8C110A128A116C
:100B000010250A128A11831203131308872D080077
:100B100038300A128A1145250A128A110C300A123D
:100B20008A1145250A128A1101300A128A114525B7
:100B30000A128A1180300A128A1145250A128A1176
:100B40000800F800F901FA01B92D79087807840046
:100B50000A128A1103200A128A110A128A115A25CE
:100B60000A128A110130F9070318FA0A0030FA074D
:100B7000B92D7908780784000A128A1103200A1215
:100B80008A110038031DC52DC62DA52DC72D0800BF
:100B9000F2000A128A11D0240A128A11D0300A12E5
:100BA0008A111F250A128A1172080A128A111F253A
:100BB0000A128A110A128A11E2240A128A110A12EE
:100BC0008A11D0240A128A110A128A11D9240A120F
:100BD0008A11D1300A128A111F250A128A110A12AB
:100BE0008A116F250A128A11F1007108F3000A12A6
:100BF0008A11E2240A128A117308FE2D0800F301FB
:100C0000F4012D2EF501F6017608803AFF008030C0
:100C10007F02031D0D2EFA307502031C102E112EBB
:100C2000132E272E272E0130F5070318F60A003061
:100C3000F6077608803AFF0080307F02031D222EDF
:100C4000FA307502031C252E262E132E272E013076
:100C5000F3070318F40A0030F4077408803AF2002E
:100C60007108803A7202031D372E70087302031C4C
:100C70003A2E3B2E022E3C2E0800831603138801C9
:100C800086010A128A1188250A128A110A300A126C
:100C90008A11A1250A128A11C0300A128A1145252B
:100CA0000A128A1101300A128A11A1250A128A1128
:100CB000C830F0000030F1000A128A11FF250A1234
:100CC0008A1101300A128A1145250A128A110A1264
:100CD0008A11F5240A128A116430F0000030F10004
:100CE0000A128A11FF250A128A110A128A11D024C7
:100CF0000A128A11D0300A128A111F250A128A118B
:100D000000300A128A111F250A128A1180300A1235
:100D10008A111F250A128A1159300A128A111F25B9
:100D20000A128A1124300A128A111F250A128A1106
:100D300001300A128A111F250A128A1116300A126E
:100D40008A111F250A128A1103300A128A111F25DF
:100D50000A128A1120300A128A111F250A128A11DA
:100D60000A128A11E2240A128A116430F00000305B
:100D7000F1000A128A11FF250A128A110A128A1139
:100D8000D0240A128A11D0300A128A111F250A12A1
:100D90008A1100300A128A111F250A128A110530A1
:100DA0000A128A111F250A128A110A128A11E224D4
:100DB0000A128A116430F0000030F1000A128A1120
:100DC000FF250A128A11E42E00300A128A11C82562
:100DD0000A128A11FB007B08FD0001300A128A11F9
:100DE000C8250A128A11FB007B08FC0002300A1297
:100DF0008A11C8250A128A11FB007B08831203138B
:100E0000A10004300A128A11C8250A128A11FB00B7
:100E10007B0883120313A00005300A128A11C8252B
:100E20000A128A11FB007B0883120313A20006300A
:100E30000A128A11C8250A128A11FB007B08831244
:100E40000313A30080300A128A1145250A128A1161
:100E500012300A128A11A1250A128A1185300A124B
:100E60008A1145250A128A118312031320080A12D7
:100E70008A1130250A128A110A128A115A250A1279
:100E80008A118312031320080A128A1102250A12FA
:100E90008A110A128A115A250A128A113A300A1244
:100EA0008A115A250A128A118312031321080A1281
:100EB0008A1130250A128A110A128A115A250A1239
:100EC0008A118312031321080A128A1102250A12B9
:100ED0008A110A128A115A250A128A113A300A1204
:100EE0008A115A250A128A117C080A128A113025A1
:100EF0000A128A110A128A115A250A128A117C08CA
:100F00000A128A1102250A128A110A128A115A2516
:100F10000A128A11C0300A128A1145250A128A1152
:100F200017300A128A11A1250A128A11C5300A1235
:100F30008A1145250A128A118312031322080A1204
:100F40008A1130250A128A110A128A115A250A12A8
:100F50008A118312031322080A128A1102250A1227
:100F60008A110A128A115A250A128A112F300A127E
:100F70008A115A250A128A118312031323080A12AE
:100F80008A1130250A128A110A128A115A250A1268
:100F90008A118312031323080A128A1102250A12E6
:100FA0008A110A128A115A250A128A112F300A123E
:100FB0008A115A250A128A117D080A128A113025CF
:100FC0000A128A110A128A115A250A128A117D08F8
:100FD0000A128A1102250A128A110A128A115A2546
:100FE0000A128A11C830F0000030F1000A128A118A
:100FF000FF250A128A11E42EE42E0A128A11002813
:00000001FF
