:100000000A128A118E2D00308A000408840A8207A1
:1000100000344134443443342034563461346C3435
:0A0020007534653420343A3400349E
:100B1C0083010A128A110B2FF70077088312031333
:100B2C0088000712871207170A30F0000030F10016
:100B3C000A128A11F6250A128A118312031307135B
:100B4C000800F70077088312031388000716871232
:100B5C0007170A30F0000030F1000A128A11F6254E
:100B6C000A128A11831203130713080038300A1271
:100B7C008A1192250A128A110C300A128A119225B6
:100B8C000A128A1106300A128A1192250A128A1147
:100B9C0080300A128A1192250A128A110800F90073
:100BAC00E82D790884000A128A1103200A128A118E
:100BBC000A128A11A7250A128A110130F800780846
:100BCC00F907E82D790884000A128A1103200A1209
:100BDC008A110038031DF32DF42DD72DF52D0800A7
:100BEC00F301F401242EF501F6017608803AFF009A
:100BFC0080307F02031D042EFA307502031C072E71
:100C0C00082E0A2E1E2E1E2E0130F5070318F60A8A
:100C1C000030F6077608803AFF0080307F02031D13
:100C2C00192EFA307502031C1C2E1D2E0A2E1E2E98
:100C3C000130F3070318F40A0030F4077408803A03
:100C4C00F2007108803A7202031D2E2E7008730296
:100C5C00031C312E322EF92D332E0800790878041E
:100C6C000319392E3A2E702EFD010314FD0D4A2E58
:100C7C0001300310F80DF90DFF3E031D3F2E01301E
:100C8C00FC007C08FD074A2EF91F4D2E4E2E3E2EE1
:100C9C00502E502E79087B02031D562E78087A02AE
:100CAC00031C592E5A2E612E7808FA027908031C5F
:100CBC00FB03FB02612E01300310F90CF80CFF3E14
:100CCC00031D622E0130FD02031D6D2E6E2E502E63
:100CDC00702E702E7B08F901F9077A08F801F807D5
:100CEC00772E0800AA2E4D30831203139F00C030BC
:100CFC000A128A1192250A128A110A128A1166277F
:100D0C000A128A11BC2E5530831203139F00C63071
:100D1C000A128A1192250A128A110A128A1166275E
:100D2C000A128A11BC2E5530831203139F00CA304D
:100D3C000A128A1192250A128A110A128A1166273E
:100D4C000A128A11BC2EBC2E831203132508003AFA
:100D5C000319B12EBC2E2408003A0319792E013A3E
:100D6C000319892E033A0319992EBC2E0800F5019C
:100D7C00F601710870040319C42EC52E032FF70158
:100D8C000314F70DD52E01300310F00DF10DFF3EBD
:100D9C00031DCA2E0130F4007408F707D52EF11F7D
:100DAC00D82ED92EC92EDB2EDB2E01300310F50DDB
:100DBC00F60DFF3E031DDC2E71087302031DE82E99
:100DCC0070087202031CEB2EEC2EF42E7008F2024B
:100DDC007108031CF303F3027514F42E0130031095
:100DEC00F10CF00CFF3E031DF52E0130F702031D34
:100DFC00002F012FDB2E032F032F7608F101F107B3
:100E0C007508F001F0070A2F0800831603138801F8
:100E1C00870105140A128A11BC250A128A110130A5
:100E2C000A128A11D5250A128A111C2F8312031358
:100E3C00A601A7012708803AFF0080307F02031D1E
:100E4C00292F02302602031C2C2F2D2F2F2F1C2F65
:100E5C001C2FC0300A128A1192250A128A11831291
:100E6C0003132708A501A5072608A401A4070A1245
:100E7C008A1178260A128A113230F0000030F10003
:100E8C000A128A11F6250A128A11013083120313F1
:100E9C00A6070318A70A0030A7072708803AFF0007
:100EAC0080307F02031D5C2F02302602031C5F2F53
:100EBC00602F2F2F1C2F1C2F1C2F0A128A11002879
:100ECC008030831603139F006B2F83121F196F2F13
:100EDC00702F6B2F712F1E08A000A1012008A100FC
:100EEC00A001831603131E08831203132007A2000C
:100EFC000030031801302107A300E830F000033064
:100F0C00F1002308F301F3072208F201F2070A1299
:100F1C008A11BD260A128A117008303E0A128A11F3
:100F2C00A7250A128A110A30F8000030F900643043
:100F3C00F0000030F100831203132308F301F307D0
:100F4C002208F201F2070A128A11BD260A128A112E
:100F5C007108FB01FB077008FA01FA070A128A11E3
:100F6C0034260A128A117808303E0A128A11A725F3
:100F7C000A128A110A30F8000030F9000A30F00029
:100F8C000030F100831203132308F301F307220846
:100F9C00F201F2070A128A11BD260A128A1171088F
:100FAC00FB01FB077008FA01FA070A128A113426B2
:100FBC000A128A117808303E0A128A11A7250A12E1
:100FCC008A110A30F8000030F90083120313230849
:100FDC00FB01FB072208FA01FA070A128A113426D0
:100FEC000A128A117808303E0A128A11A7250A12B1
:040FFC008A1108004E
:00000001FF
