:060000000A128A11942F80
:100F280083010A128A11982F8316031386018701F9
:100F38008801FF30831203138700FF308800A42F35
:100F4800FF30831203138600E830F0000330F1000D
:100F58000A128A11C2270A128A1183120313860100
:100F6800E830F0000330F1000A128A11C2270A1291
:100F78008A11A42FA42F0A128A110028F301F40160
:100F8800F02FF501F6017608803AFF0080307F02E5
:100F9800031DD02FFA307502031CD32FD42FD62F60
:100FA800EA2FEA2F0130F5070318F60A0030F60792
:100FB8007608803AFF0080307F02031DE52FFA3063
:100FC8007502031CE82FE92FD62FEA2F0130F3070B
:100FD8000318F40A0030F4077408803AF200710824
:100FE800803A7202031DFA2F70087302031CFD2F4A
:080FF800FE2FC52FFF2F08009A
:00000001FF
