:100000000A128A11A52C00308A000408840A82078B
:1000100000344F34553454344C3445345434003463
:1000200049344E344C3445345434003470344834FC
:0E003000003443344934003454345534003421
:1008F00064008001840A0406031900340406792C7C
:10090000812C831203138C1E862C872C812C8C1235
:100910001A088A2C0800F00070088312031399004B
:10092000912C0C1E942C952C912C0C120800243028
:1009300083160313980090308312031398008316D4
:1009400003131815813099000800FA01FB01FC011E
:1009500083132030840046300A128A1178240A1248
:100960008A1183010A128A11572DF7007708831222
:10097000031386000710871007150530F0000030BC
:10098000F1000A128A1119250A128A11831203131F
:1009900007110800F7007708831203138600071475
:1009A000871007150530F0000030F1000A128A1197
:1009B00019250A128A11831203130711080038300F
:1009C0000A128A11B5240A128A110C300A128A11ED
:1009D000B5240A128A1106300A128A11B5240A12A5
:1009E0008A1180300A128A11B5240A128A1108006D
:1009F000F9000B2D790884000A128A1103200A12CB
:100A00008A110A128A11CA240A128A110130F800C6
:100A10007808F9070B2D790884000A128A1103203F
:100A20000A128A110038031D162D172DFA2C182DC5
:100A30000800F301F401472DF501F6017608803A2C
:100A4000FF0080307F02031D272DFA307502031C42
:100A50002A2D2B2D2D2D412D412D0130F507031869
:100A6000F60A0030F6077608803AFF0080307F02F1
:100A7000031D3C2DFA307502031C3F2D402D2D2DFA
:100A8000412D0130F3070318F40A0030F40774080D
:100A9000803AF2007108803A7202031D512D7008ED
:100AA0007302031C542D552D1C2D562D0800831642
:100AB0000313860188010713871707108710071192
:100AC0008312031388010A128A11DF240A128A1181
:100AD000C0300A128A11B5240A128A110E300A1285
:100AE0008A11F8240A128A1194300A128A11B52444
:100AF0000A128A1114300A128A11F8240A128A1171
:100B0000D4300A128A11B5240A128A1111300A123D
:100B10008A11F8240A128A1185300A128A11B52422
:100B20000A128A1108300A128A11F8240A128A114C
:100B30008C300A128A11B5240A128A1101300A1265
:100B40008A11F8240A128A110A128A1197240A12A9
:100B50008A1168300A128A118B240A128A118312B0
:100B600003138801B32D8312031341084004031DAE
:100B7000BA2DBB2DC22D88010A128A11CA260A126B
:100B80008A11C22D01308312031340064104031D54
:100B9000CA2DCB2DB32D013088000A128A11D82519
:100BA0000A128A11B32DB32DB32D0A128A1100280F
:100BB00001308312031388000A128A1180240A125A
:100BC0008A11F8007808FC007C08503A031DE92DD2
:100BD000EA2DC92E0A128A1180240A128A11F800FD
:100BE0007808FC007C08483A031DF72DF82DC92E23
:100BF0000A128A1180240A128A11F8007808FC006F
:100C00007C08493A031D052E062EC92EFA01FB0168
:100C10007B08803AFF0080307F02031D112E0930CF
:100C20007A02031C142E152E172E372E372E0A1279
:100C30008A1180240A128A11F8007A08343E84004E
:100C40007808831380000130FA070318FB0A00308C
:100C5000FB077B08803AFF0080307F02031D322EA5
:100C600009307A02031C352E362E172E372EFA0144
:100C7000FB017B08803AFF0080307F02031D422E7B
:100C800009307A02031C452E462E482EC22EC22E53
:100C90007B087A0403194D2E4E2E562E01307A060B
:100CA0007B04031D542E552E6D2E562EC7300A126E
:100CB0008A11B5240A128A118312031334080A1206
:100CC0008A11CA240A128A118312031335080A12E0
:100CD0008A11CA240A128A116D2E7B08803AFF00FD
:100CE00080307F02031D762E05307A02031C792E98
:100CF0007A2EAE2E7B08803AFF0080307F02031DE3
:100D0000832E09307A020318862E872EAE2E9B3052
:100D10000A128A11B5240A128A11831203133908A0
:100D20000A128A11CA240A128A11831203133A087A
:100D30000A128A11CA240A128A11831203133B0869
:100D40000A128A11CA240A128A11831203133C0858
:100D50000A128A11CA240A128A11AE2E0130FA0729
:100D60000318FB0A0030FB077B08803AFF00803045
:100D70007F02031DBD2E09307A02031CC02EC12E36
:100D8000482EC22E83120313C001C101C92EC92EE1
:100D9000C92E08008312031388010A128A118024C5
:100DA0000A128A11F8007808FC007C08503A031DEA
:100DB000DA2EDB2EFF2F0A128A1180240A128A11E2
:100DC000F8007808FC007C08483A031DE82EE92E5C
:100DD000FF2F0A128A1180240A128A11F80078085B
:100DE000FC007C084F3A031DF62EF72EFF2FFA0168
:100DF000FB017B08803AFF0080307F02031D022F39
:100E000010307A02031C052F062F082F282F282FB9
:100E10000A128A1180240A128A11F8007A08203EE8
:100E200084007808831380000130FA070318FB0A56
:100E30000030FB077B08803AFF0080307F02031DF3
:100E4000232F10307A02031C262F272F082F282F3C
:100E5000FA01FB017B08803AFF0080307F02031D0E
:100E6000332F10307A02031C362F372F392FF42FEF
:100E7000F42F7B087A0403193E2F3F2F472F0130B0
:100E80007A067B04031D452F462F5E2F472FCE3059
:100E90000A128A11B5240A128A1183120313200838
:100EA0000A128A11CA240A128A1183120313210812
:100EB0000A128A11CA240A128A115E2F7B08803A0C
:100EC000FF0080307F02031D672F05307A02031C6C
:100ED0006A2F6B2F9F2F7B08803AFF0080307F02A4
:100EE000031D742F09307A020318772F782F9F2F54
:100EF000E2300A128A11B5240A128A1183120313EE
:100F000025080A128A11CA240A128A1183120313AD
:100F100026080A128A11CA240A128A11831203139C
:100F200027080A128A11CA240A128A11831203138B
:100F300028080A128A11CA240A128A119F2F7B08D4
:100F4000803AFF0080307F02031DA82F0C307A0208
:100F5000031CAB2FAC2FE02F7B08803AFF008030C2
:100F60007F02031DB52F10307A020318B82FB92F56
:100F7000E02FA2300A128A11B5240A128A118312B4
:100F800003132C080A128A11CA240A128A11831226
:100F900003132D080A128A11CA240A128A11831215
:100FA00003132E080A128A11CA240A128A11831204
:100FB00003132F080A128A11CA240A128A11E02F79
:100FC0000130FA070318FB0A0030FB077B08803A60
:100FD000FF0080307F02031DEF2F10307A02031CC8
:100FE000F22FF32F392FF42F013083120313C00790
:100FF0000318C10A0030C107FF2FFF2FFF2F080081
:00000001FF
